:03000000020D826C
:0C0D8200787FE4F6D8FD75815A020DC997
:10123C001212BA121086120F0E120AC31212F312E5
:0C124C001037120FE4AF2212130480E7E9
:03001B00020CF5DF
:100CF500C0E0C0F0C083C082C0D075D000C000C0C5
:0D0D050001C002C003C004C005C006C00745
:100D1200050DE50D64057002F50D0523E52364015B
:100D22007002F5237B017A00790AAD3B1210C705E8
:100D32003BE53B64087002F53B050FE50F700205C9
:100D42000EFFAE0EBE0109BF2C06750E00750F0018
:100D52000509E50970020508646445087007F5088D
:050D6200F509630B011F
:100D6700D007D006D005D004D003D002D001D000E0
:0B0D7700D0D0D082D083D0F0D0E0328A
:10103700E539700DE50B640170077F8012134E8050
:10104700057F80121349E52C640170097F01121393
:101057004E7F02800DE52C6402700E7F0212134E44
:101067007F011213497F048012E52C6403700F7F00
:0F1077000412134E7F021213497F0112134922F4
:100FE400AF397E00EF703AAD10FCC3ED94147480F9
:100FF400948050028026D3ED9450EC648094805009
:1010040010C3ED9414EC648094804005750A058047
:1010140018D3ED9450EC64809480400D750A0180DF
:1010240008EF64014E7002F50AE50A75F033A4FF77
:03103400020003B4
:10110500552020202025332E3266004C202020201B
:1011150025303375004C20202020202530327500E5
:101125004C20202020414141005020202530322EE6
:0A1135003166202530322E316600AD
:0F12A400012C0104354090000004313F00000090
:1012CF00538EBF53890F758B18758DFCC28FD28EBD
:0312DF00D2AB226D
:0E13230053A01FEFC43354E042A053A01F227A
:1012BA007580FF7F04121323E4F5800F12132312A3
:0512CA0012CFD2AF229B
:04134E00EF42222226
:05134900EFF452222226
:04135200EF62222202
:1013040053A01FEFF4F58043A080F58053A01F2263
:060BDF008B3F8A408941B2
:100BE500E4F546F545C3E5459408748094804003D3
:100BF500020CF4AB3FAA40A94185468275830012D9
:100C050005AF12062E0CC1200CBC2D0C53300C5810
:100C1500310C5D320C62330C67340C6C350C71365B
:100C25000C76370C7B380C80390C85410C8F430CC6
:100C350099450C9E460CA3480CA84C0CAD4E0CB225
:100C4500500CB7550C8A620C946400000CC17547B2
:100C5500C0806C7547F980677547A480627547B099
:100C6500805D754799805875479280537547828096
:100C75004E7547F880497547808044754790803F99
:100C8500754788803A75478380357547C6803075C6
:100C950047A1802B754786802675478E802175472D
:100CA50089801C7547C780177547C8801275478CA2
:100CB500800D7547C180087547BF80037547FF855F
:100CC5004682758300A3AB3FAA40A9411205AFB484
:100CD5002E0553477F0546AB42AA43A94485458265
:0F0CE500758300E5471205EE05450546020BEA4B
:010CF40022DD
:1010C7007580FFE5A0541F44E0F5A053A01FA805B5
:1010D7007401088002C333D8FCF580E5A0541F448F
:1010E700C0F5A053A01FAF058F827583001205AF0F
:0E10F700F580E5A0541F44E0F5A053A01F2291
:100AC300E5236003020BDE7523017F031211A0757A
:100AD3003D008F3EAC3DAD3EE412033A7B487AE1E4
:100AE30079FA783F1201161203738E3D8F3EAC3DA7
:100AF300AD3EE412033A8F278E268D258C24E52CF8
:100B030064017027F50CFBFA79C8784212021F8F33
:100B1300278E268D258C247542FF75431175440558
:100B23008F488E478D468C45020BC3E52C640270BB
:100B33005085103AE5397038D3E53A94637480945C
:100B43008040117542FF754311754410754500854A
:100B53003A46806CD3E53A946374809480506A7506
:100B630042FF75431175441A754500853A46805016
:100B7300E539640170537542FF754311754425804F
:100B83003FE52C6403704285383085372F85362E38
:100B930085352D85342B85332A8532298531287572
:100BA30042FF75431175442E853048852F47852EA6
:100BB30046852D45852B4C852A4B85294A85284911
:100BC3007B017A0079001206B07542017543007506
:0C0BD300440A7B017A007900120BDF223B
:04133100D2A07F05C2
:0813350000AE071FEE70F92263
:0F131400D2A1121331C2A17F05121335C2A0223C
:0C133D00C2A1121331D2A17F05021335AA
:10128D00C2A0A20092A17F05121335121331C2A084
:07129D00D2A17F0502133509
:081274001213147F9012113FC8
:10127C00121331A2A19200C2A07F05121335A20055
:01128C00223F
:02113F00AD07FA
:10114100E4FCECC39408748094805024C2A07F0511
:10115100121335ED30E704D2A18002C2A17F05123E
:101161001335D2A0ED25E0FD7F051213350C80D299
:02117100C2A01A
:011173002259
:1011F100E4FCECC39408748094805017121331ED11
:1012010025E0FD30A103430501C2A07F051213357E
:051211000C80DFAF05B9
:0112160022B5
:0211A000AB079B
:1011A200E4FD121274AF0312113F12127C121314D7
:1011B2007F9112113F12127C1211F1AD07D200126F
:0711C200128D12133DAF0571
:0111C9002203
:10000300AB071212747F4012113F12127CAF03121E
:08001300113F12127C02133DA3
:100F0E00E50C7076FFFE7DC87C42AB34AA33A93265
:100F1E00A831120116C004C005C006C007AC3DAD15
:100F2E003EE412033AA804A905AA06AB07D007D0DF
:100F3E0006D005D0041202BC403DE4FFFE7DC87C05
:100F4E0042AB38AA37A936A835120116C004C0051F
:100F5E00C006C007AC3DAD3EE412033AA804A90595
:100F6E00AA06AB07D007D006D005D0041202BC608B
:0B0F7E00025004E4F53922753901220D
:1012E200538E7F5389F0758AF4758CFFC28DC28C40
:0112F20022D9
:100F8900E4FF7E0A1212E2C290AD061EED6011D294
:100F99008C308DFDC28DA290B392901212E280E93D
:100FA900C28CC28DE4F58AF58CD28C309103308DD8
:100FB900FAC28C308D05C28D7FFF22AF8CEFFEAD5A
:100FC9008A7C00E42DFDEC3EFC12033A7B967A43C1
:0A0FD900798B783C120116120373A5
:010FE30022EB
:1012F300E50F450E700AF50E750F01120F898F1059
:0113030022C7
:0612B30001110001120010
:1012170043B00FE5B0540F24F9601424FC600D248B
:10122700FE600614700C7F07227F06227F05227F4F
:041237000422E4FFAA
:01123B002290
:10108600E50D703C750D01121217E5116FFE5FFD3F
:10109600EFF45EF53F8F11ED602624FB60101460BF
:1010A60013146016240370187540040211747540F9
:1010B60005021258754006020E0E754007120E9074
:0110C6002207
:101174000512E51224FE600C14601124027013752C
:101184002C02800E752C03750C018006752C01E46D
:0B119400F50CE51275F0038485F012E5
:01119F00222D
:101258000513AF137E00EF64017005753C0180082B
:0B126800EF64024E7002F53C531301CE
:011273002258
:100E0E00E52C6403707BE53C7039AF38AE37AD36F8
:100E1E00AC35FBFAF9783F1200258F388E378D36B8
:100E2E008C35E4FFFE7DA07C40AB38AA37A936A8EE
:100E3E00351202BC604B4049E4F538F537F536758E
:100E4E00353F22E53C64017038AF34AE33AD32AC81
:100E5E0031FBFAF9783F1200258F348E338D328CA8
:100E6E0031E4FFFE7DA07C40AB34AA33A932A83119
:100E7E001202BC600C400AE4F534F533F5327531DC
:020E8E003F2201
:100E9000E52C64037077E53C7037AF38AE37AD367C
:100EA000AC35FBFAF978BF1200258F388E378D36B6
:100EB0008C35E4FFFEFD7C3FAB38AA37A936A83558
:100EC0001202BC5048E4F538F5377536A075354048
:100ED00022E53C64017036AF34AE33AD32AC31FB49
:100EE000FAF978BF1200258F348E338D328C31E4BD
:100EF000FFFEFD7C3FAB34AA33A932A8311202BCFD
:0E0F0000500BE4F534F5337532A07531402204
:10001E000203DFE86480F8E933E83360110460F02E
:10002E00ED33EC337009E8FCE9FDEAFEEBFF220448
:10003E0060DED3EB9FEA9EE99DE8C2E78CF0C2F743
:10004E0095F0400CE8CCF8E9CDF9EACEFAEBCFFB0F
:10005E001203AA85D0F05804700320D5B3E80470BB
:10006E00075002B2D50203E992D5EC0460F7E4CC56
:10007E00C0E0C398F8603B94186008400DD0E0FBD8
:10008E000203C1E4FBFAC9FC8028E830E406E4C9A7
:10009E00FBE4CAFCE830E305E4C9CACBFCE854072C
:1000AE006010F8C3E913F9EA13FAEB13FBEC13FC37
:1000BE00D8F130F52FC3E49CFCEF9BFFEE9AFEEDDA
:1000CE0099FDD0E0FBEF4E4D4C701222DB03020384
:1000DE00E6EC2CFCEF33FFEE33FEED33FDED30E7B7
:1000EE00EB0203C1EF2BFFEE3AFEED39FDD0E0FB44
:1000FE0050130BBB00030203E9ED13FDEE13FEEFED
:08010E0013FFEC13FC0203C116
:10011600EC4D6011E8497017ED33EC3304600DE4E3
:10012600FCFFFEFD22E933E8330470F80203DF1218
:1001360003AA58046009E4CC248150062850090219
:1001460003E92840030203E6C0E0EB4A7044B980A5
:1001560006D0E0FB0203D5EF4E701CBD8008EBFF16
:10016600EAFEE9FD80EBE98DF0A4FEE5F00201FF71
:10017600E9CDF9EAFEEBFFEF89F0A4FCE5F0CE89C4
:10018600F0A42EFFE435F0CD89F0A42DFEE435F081
:100196008067EF4E7005BD80D780C3EF8BF0A4ACAF
:1001A600F0EE8BF0A42CFCE435F0F8EF8AF0A42CEA
:1001B600E5F038FCE433CB8DF0A42CFCE5F03BF8FD
:1001C600EE8AF0A42CFCE5F038F8E433CF89F0A4ED
:1001D6002CFCE5F038CF3400CE89F0A42FFFE5F0F3
:1001E6003EFEE433C98DF0A42EFEE5F039CD8AF04B
:1001F600A42FFFE5F03EFEE43DFD33D0E0FB5007C3
:100206000BBB000F0203E9EC2CFCEF33FFEE33FED1
:06021600ED33FD0203C1FF
:10021C000203E9EC5D046005E8590470030203DF96
:10022C001203AA580460F6EC4860F2EC7004FDFE70
:10023C00FF22C860DB2481C85009C39860025006B5
:10024C000203E69850CAF582E9294B4A7005AB8245
:10025C000203D575F0007C1A7880C3EF9BEE9AED03
:10026C0099400DC3EF9BFFEE9AFEED99FDE842F02D
:10027C00DC23ACF0D0E0FFD0E0FED0E0FDAB822080
:10028C00E7101BEB60BAEC2CFCEF33FFEE33FEED0A
:10029C0033FD0203C1E803F830E705C0F075F00048
:1002AC00EF2FFFEE33FEED33FD40B830E7C280AAEE
:1002BC0074F8CC6480CCC86480C8F58204604FC3E9
:1002CC00EB9FF5F0EA9E42F0E99D42F0E89C45F088
:1002DC00603C501DE5825FFFE582D313CB5BCBF412
:1002EC002B5582FB50280ABA002409B9002008803B
:1002FC001DE5825BFBE582D313CF5FCFF4C3132FD5
:10030C005582FF50090EBE00050DBD00010CC3EB5C
:10031C009FF5F0EA9E42F0E99D42F0E89C45F060C2
:09032C0007CC4820E701B3EC22E4
:1003350075F020800E75F010800575F0087D007E43
:10034500007F003392D530D503120610EC334010F0
:10035500EF33FFEE33FEED33FDEC33FCD5F0ED224C
:0E036500E5F0247EA2D513CC92E7CDCEFF2288
:10037300EDD2E7CD33EC3392D524814006E4FFFE82
:10038300FDFC22FCE4CFCECDCC24E0501174FF80E1
:10039300EDC3CC13CCCD13CDCE13CECF13CF04707E
:0703A300F030D5DE02061068
:10065400E5562442F8E6055622783F3007027842F0
:10066400E475F00112061E0205962000EB7F2ED2DF
:10067400008018EF540F2490D43440D4FF30040B7E
:10068400EF24BFB41A0050032461FFE5576002153C
:1006940057055AE55A7002055930070D783FE4753D
:1006A400F00112061EEF0205DC0211CA7403D20720
:1006B4008003E4C207F5568B3F8A408941E4F5572D
:1006C400F559F55AE55760077F2012068F80F575B6
:1006D40058FFC201C200C202C203C205C206C20858
:1006E40012065DFF700D3007057F001206A0AF5A99
:1006F400AE5922B4255FC2D5C20412065DFF24D0D0
:10070400B40A00501A75F00A785730D50508B6FFB8
:100714000106C6A426F620D5047002D20380D9248B
:10072400CFB41A00EF5004C2E5D20402098DD201FD
:1007340080C6D20080C0D20280BCD2D580BAD20595
:1007440080B47F2012068F2002077401B557004041
:10075400F1120654FF12068F0206C8D208D2068090
:1007640095120654FB120654FA120654F94A4B70B9
:100774000679847A0A7BFF20022EE557602A7E00E0
:100784008E827583001205AF60060EEE655870F018
:10079400C2D5EBC0E0EAC0E0E9C0E0EE1209EDD05A
:1007A400E0F9D0E0FAD0E0FB120596FF60AAEBC0B6
:1007B400E0EAC0E0E9C0E012068FD0E02401F9D0FD
:1007C400E03400FAD0E0FBE5580460DCD558D98069
:1007D40087D20280A21209D060F7E5587001041292
:1007E40003F4A958600DE558600914F558120A7706
:1007F400EF60F3EA30E702F404C3995077EAF42592
:10080400580430E701E404F558800D1209D060C1A2
:10081400EA055825581203F4EA7855F630E701E45E
:10082400255804D55804200501141209EDE4C0E04C
:10083400120A777855E6601320E70714F612067754
:10084400802204F6D0E014C0E07F00120677E55859
:10085400600712066E1558800B30050312066ED021
:10086400E00206C8D0E00480C51209D060A0E558B3
:10087400041203F47855EAF6E558200502600104F1
:0508840024041209ED3F
:1008890074FF04C0E0120A77120677E558200502C2
:10089900600312066ED0E0B558E87F4512068178EC
:1008A90055E67F2B30E7047F2DF404C0E012068F54
:1008B900D0E075F00A84C0F0120678D0E01206780C
:1008C9000206C8791080027908C206C2088008D2D7
:1008D900D5790A8004790AC2D5E558047002F55819
:1008E900E4FAFDFEFF120654FC7B082001131206F0
:1008F90054FD7B1030000A120654FE120654FF7B89
:1009090020EC3382D592D55013C3E43000069FFF03
:10091900E49EFEE42001039DFDE49CFCE4CBF8C2C7
:1009290001EC700CCFCECDCCE824F8F870F3801729
:10093900C3EF33FFEE33FEED33FDEC33FCEB33FB5A
:10094900994002FB0FD8E9EB300105F8D0E0C44823
:10095900B201C0E00AEC4D4E4F78207B0070C2EA2C
:10096900B5580040BCC0E01209EFD0F0D0E020013A
:1009790004C4C0E0C4B201C0F0120678D0F0D5F0CA
:10098900EB0206C812062E07655308CC5807364CE9
:1009990007324208D04F08D84408D849074B4308C2
:1009A900DE55080F46086D4507D9470AA450073A8E
:1009B9002D073E2E07612B074223075F200A8D2A48
:1009C90006FA4800000759E558B4FF03755806129E
:1009D9000654FC120654FD120654FE120654FF7802
:1009E9004E020423790AA2D5200314300509B9104F
:1009F900020404B9080104A2D5200602500104200A
:100A090002689202B557005034C0E07F20300319C4
:100A19007F30A20272067205500F120A46C202C244
:100A290006C205C2087F30800F300503E9C0E01215
:100A3900068F300503D0E0F9D0E0B557CC30051763
:100A49007F30B9100C12068F7F583004077F7880E9
:100A590003B9080312068F3002057F2D02068F7F26
:100A6900202008F87F2B2006F322920280CF7F00F6
:100A7900B407005005244EF8E6FF22286E756C6C09
:100A89002900D2011206543001F8C201785730D535
:100A99000108F60206FA2D50434958120654240358
:100AA900B405004001E4900A9F93120680743A123B
:0A0AB9000680D2037557040208CC32
:1003AA00E9D2E7C933E833F892D5EDD2E7CD33EC99
:0703BA0033FC5002B2D52212
:1003C100EC30E7100FBF000C0EBE00080DBD00049D
:1003D1000BEB6014A2D5EB13FCED92E7FD2274FF49
:1003E100FCFDFEFF22E480F8A2D574FF13FC7D80A2
:0303F100E480EFB6
:1003F400F920E72824F950037907E4F42402FB18D0
:10040400DBFDE624FB5014E9600DE4F618E604F67F
:0F041400B40A08E4F6D9F57401F60A22C2D5221B
:10042300ED33EC3392D5FA602AB4FF33EDC2E77BA8
:10043300FF60067A047948E4227A04795120D504CE
:100443007A04794C224E614E002B494E46002D49C9
:100453004E4600E47A08F608DAFC7B00740722E8CB
:10046300C0E0ECC0E0EDC0E0EEC0E0EFC0E0EA7554
:10047300F010A4CAABF075F04DA42BFBE435F0FCEF
:10048300EA2410FAEB34C5FBEC34D9FCEDC2E7FFE8
:1004930075F056A4F42411C5F0F434C58FF0A42AE2
:1004A300E5F03BE43CF620E714120556D0E0FFD01C
:1004B300E0FED0E0FDD0E0FC12021F8014F4041231
:1004C3000556D0E0FFD0E0FED0E0FDD0E0FC120105
:1004D30016D0E0F8E6FAEDD2E7CD33EC332482FB15
:1004E300E4C3CF33CFCE33CECD33CD33DBF37B0772
:1004F30075F00A846004F6081B0AE5F0F6088FF02D
:10050300740AA4FFACF08EF0740AA42CFEACF05075
:10051300010C8DF0740AA42CFDE435F0F608DBDE43
:0305230074072238
:100526003F8000004120000042C80000447A0000DD
:10053600461C400047C35000497424004B1896805F
:100546004CBEBC205A0E1BCA6753C21C749DC5AE56
:10055600FB60065407601C2323120584EB543860A5
:100566000912057012057F120116ECF8EDF9EEFA84
:10057600EFCB22EB12057F80F1543803241C900543
:1005860026FE93FC0EEE93FD0EEE930ECE93FF2207
:100D8E0002123CE493A3F8E493A34003F68001F22D
:100D9E0008DFF48029E493A3F85407240CC8C33366
:100DAE00C4540F4420C8834004F456800146F6DF35
:100DBE00E4800B01020408102040809012A4E47E0F
:100DCE00019360BCA3FF543F30E509541FFEE4932A
:100DDE00A360010ECF54C025E060A840B8E493A3F1
:100DEE00FAE493A3F8E493A3C8C582C8CAC583CA1C
:100DFE00F0A3C8C582C8CAC583CADFE9DEE780BED4
:0112B9000034
:10059600BB010689828A83E0225002E722BBFE0263
:0905A600E32289828A83E4932296
:1005AF00BB010CE58229F582E5833AF583E0225001
:1005BF0006E92582F8E622BBFE06E92582F8E2224B
:0D05CF00E58229F582E5833AF583E4932265
:1005DC00BB010689828A83F0225002F722BBFE01FE
:0205EC00F322F8
:1005EE00F8BB010DE58229F582E5833AF583E8F043
:1005FE00225006E92582C8F622BBFE05E92582C8EF
:02060E00F222D6
:0E061000C3E49FFFE49EFEE49DFDE49CFC22FB
:10061E00FAE6FB0808E6F925F0F618E6CA3AF622DD
:10062E00D083D082F8E4937012740193700DA3A35B
:10063E0093F8740193F5828883E47374029368606F
:06064E00EFA3A3A380DF6F
:1011CA00EFB40A07740D1211D5740A309811A89950
:1011DA00B8130CC2983098FDA899C298B811F63085
:0711EA0099FDC299F599225D
:00000001FF
